:020000040000FA
:1000000048172020D5000000D9000000DB000000C8
:1000100000000000000000000000000000000000E0
:10002000000000000000000000000000DD000000F3
:100030000000000000000000DF0000004529000073
:10004000E30000002D170000E3000000E3000000C3
:10005000E3000000E3000000E3000000E300000014
:1000600000000000E3000000E300000000000000CA
:100070000000000065310000A93100002D310000B2
:10008000E300000075290000E3000000E300000029
:10009000E3000000E300000000000000000000009A
:1000A000E3000000E300000000000000000000008A
:1000B000E300000000000000E3000000E300000097
:1000C0000348854600F08CFC00480047A93A000030
:1000D0004817202003480047FEE7FEE7FEE7FEE75B
:1000E000FEE7FEE7C1000000F8B502464A40D40F23
:1000F00042004B0052085B089A4202D20246084670
:1001000011464A0023D0C30D4A00DDB2120EAD1ACB
:10011000202D35DA49020126490AF6058A19002CF4
:1001200000D0524220214F1B1146B9402A411018DD
:10013000C20D9A4221D0002C17D0012D08DCDA051F
:10014000801AD20F8019D207DBB200F02EFAF8BD68
:10015000DA05801A012340001B06C01880185A4295
:100160008018CA0F1043490007E04908C20711432D
:10017000DA05801A80194008801800F00EFAF8BDE0
:1001800061000122511A001BF7E70122D2075140FA
:10019000AAE70122D2075040A6E7024670B54A40BE
:1001A000D30FDB0740002DD04A002AD0010E140ED9
:1001B000000212020919400A520A8418E501044695
:1001C0005443000A120A2E045043A4194219200C69
:1001D000C543AA18120C0125AD03521C5219120472
:1001E0007F39240400D0521C104301D44000491E22
:1001F000C2B20C06C0092018401C4008802A02D058
:1002000003E0002070BD40084000002900DA002013
:10021000184370BD70B502464A40D50F40004A00F1
:10022000ED0740085208002814D0002A12D0C40D4F
:10023000D30D41020120C0055202490A520AE41AB4
:10024000091812187D34914201D3641C00E0490062
:10025000002C01DA002070BD0023914201D3891ADD
:100260000343400849000028F7D100290AD09142F1
:1002700002D10121C90705E0914201D2012101E02B
:100280000121C943E005C018401900F086F970BD8E
:10029000F0B50C465C4085B0E40FE40703944C00D5
:1002A00000266408590094464908024602962243F3
:1002B00021D062460A431ED06200570D4A000E0349
:1002C0002303550D012402462C492405781B1B0BE2
:1002D000360B401823432643614600901C46501AB3
:1002E000B44103D30098401C009002E0921800989B
:1002F0005B41002803DA0020014605B0F0BD002074
:10030000012109050746864611E064461D46141B77
:10031000B54106D36546521BB341744607430C43AF
:10032000A646CD0740084908284392185B41054678
:100330000D43EAD11046184313D060461946504089
:100340007140084306D06046101AB34106D201221C
:10035000002306E000220123DB0702E00122D24352
:100360005310009874460105381C6141029C039D9E
:100370000019694100F05EF9BFE70000FD030000CD
:100380000122D207002800DB101A002900DB511AD5
:10039000814201D801207047002070470122D20716
:1003A000002800DB101A002900DB511A814201D21B
:1003B00001207047002070470122D207002800DB8F
:1003C000101A002900DB511A814201D30120704725
:1003D000002070470122D207002800DB101A0029F4
:1003E00000DB511A814201D1012070470020704783
:1003F000C217C10F504010B54018CA0796230021FC
:1004000000F0D3F810BD10B500229623114600F07D
:10041000CCF810BD0EB505490291002100910A46A5
:100420000B46019100F013F903B000BD3304000046
:10043000C20F410040020123400ADB05D207090E2A
:10044000C0187F2901DA00207047962903DC962323
:10045000591AC84001E096398840002AF4D0404239
:100460007047C20FD207400040080BD0C10D0723D0
:10047000DB01C91840020905400A1143C2084007C0
:100480001143704700200146704770B504460029AB
:1004900003D000202022012310E0002801D00020FA
:1004A000C043C046C0460DE02546D5408D4205D329
:1004B0000D469540641B1D46954040191546521E39
:1004C000002DF1DC214670BD70B5002504462E4696
:1004D000002911D0002C01DA01254442002901DA5B
:1004E000012649422046FFF7D0FFB54200D04042E6
:1004F000002D00D0494270BD002C02DA0121C9074D
:1005000002E0002C00DD03490846C046C0462146F3
:1005100070BD0000FFFFFF7FF0B51FB4064600204E
:1005200082B005464024019100901BE001992246CB
:100530000F46304600F020F8049A059B801A994136
:1005400010D310461946224600F062FA361A8F413F
:100550000197224601200021009F00F059FA381827
:100560004D4100902046641E0028DFDC019B00986E
:100570002946324607B0F0BD10B5202A04DB0846F4
:10058000203AD040002110BD0B46D340D04020245B
:10059000A21A91400843194610BD002904DA401CF4
:1005A000490001D140084000704770B40024050C98
:1005B00005D11024000402D1002921D01124050EF8
:1005C00001D100020834050F01D10001241D850F5F
:1005D00001D18000A41C002801DB4000641C00291C
:1005E00008D020252E1B0D46F540A14000D001214A
:1005F0002943084301061B1B000ADB1D02D500200E
:1006000070BC7047DB05181880180029F8DA401C08
:100610004900F5D170BC400840007047420005D049
:100620004200120E52428A4201DB00207047C90587
:100630000818704710B5002B08DA0024401C6141EF
:1006400092185B411A4301D14008400010BDF0B53B
:100650001FB482B005460C0003D0084603F0A8FF83
:1006600002E003F0A5FF2030024600902146284614
:1006700000F0CEF9049B059A04460F461843114337
:10068000084314D0184610431BD0009840210A1A82
:1006900018460599FFF770FF05460E46009A059922
:1006A000049800F0B5F9084305D0012004E0204685
:1006B000394607B0F0BD0020C11705430E432C4357
:1006C000374300990E986305401A7905E40A002221
:1006D0000C43FD0A0A3002D500200146E9E7010576
:1006E000101969410C9C0D9D00196941FFF7A2FF8B
:1006F000DFE70000F0B507460846584087B0C00F56
:10070000049048000E46590040084908BC1A884128
:1007100005D2384631461E4617460B46024658005B
:10072000400810434CD0300D039040055900400D57
:10073000490D0590401A0290402872DA18030121F1
:10074000000B09050843019004980092002805D089
:100750000199524200208841009201900298402164
:100760000A1A0199009800F053F905460C466B46A9
:1007700007CB00F05DF9C0197141039A0E0D0023FB
:10078000D71756401A467A40164344D0049A002A96
:100790002DD0029A012A039A15DC1205C01A914144
:1007A00001263605001C7141D20F059ED207009329
:1007B000019202962A462346FFF749FF07B0F0BD93
:1007C00038463146FAE71605224A0F46B218C01AD3
:1007D000B74101210905001C4F4100187F41114616
:1007E00018187941E20F10436D19644113E0E207D4
:1007F0006D0815436408C2071443039A01261205C5
:10080000C01A91413605001C7141CE0740083043A3
:100810004908C01851412A462346FFF70BFFCDE790
:10082000FFE7049801224000C117121A00238B41F0
:1008300004983146C417381AA141EEE730B40124B8
:10084000E407634030BC55E730B40124E40761405D
:1008500030BC4FE70000E0FFF0B51FB488B00B9943
:100860000998002448400999C00F49004908099196
:10087000C0070B990090490049080B910999089805
:10088000A64608431CD00B990A98084318D009982B
:1008900001244000420D4800410D09982405000341
:1008A000000B204309900B980003000B20430B9092
:1008B00050181C494018002201901446104605E0CB
:1008C000002001460DB0F0BD032801DA034600E028
:1008D00003239C46C11A0AAE0AE05F0008ADED5B37
:1008E0004F00F75B7D430027AA187C41491C5B1E23
:1008F0006145F2DD410004AB5A522104120C0A4357
:10090000240C401C0828DFDB0198029000997046F7
:1009100001910090059B049A07990698FFF797FEAE
:10092000D0E700000DFCFFFF4A0009030123090B7B
:100930001B0519430A4B10B5520D9A4202DA0020EA
:10094000014610BD064B34339A4203DC9A1AFFF776
:1009500013FE10BD034BD21800F05AF810BD000072
:10096000FF030000CDFBFFFF10B54100C40F0A0ECE
:1009700040020121400AC905E40740187F2A07DA2E
:100980007D2A00DA7D22763A90400146002008E078
:10099000962A09DC1346763B0146994096239A1A1B
:1009A000D040FFF7FAFD01E0963A9040002C00D0CD
:1009B000404210BD10B5002904DB0124E407404289
:1009C0008C412146002B04DB1C460123DB075242ED
:1009D000A341994200D1904210BD00000020704711
:1009E0001CB5094800900948019005460126009C65
:1009F00005E0E36807CC33430C3C98471034AC4225
:100A0000F7D3FFF761FB00006C7000008C700000F2
:100A100010B5202A04DB0146203A9140002010BD89
:100A2000914020239C1A0346E3401943904010BD97
:100A300010B5202A06DBCB170846203A1041C11713
:100A40000B4306E00B461341D0402024A21A9140EC
:100A50000843194610BD0000024900200860024901
:100A600008607047D0042020D404202082B0019078
:100A70000199881E001F00BFFCD2009002B0704791
:100A800084B003900291019203980068009000984E
:100A900001998843009000980299019A11400843F7
:100AA0000399086004B0704784B0039002910192EA
:100AB000039800680090009801998843009000987E
:100AC0000299019A114008430399086004B07047E5
:100AD00084B00390029101920398006800900098FE
:100AE00001998843009000980299019A11400843A7
:100AF0000399086004B0704784B00390029101929A
:100B0000039800680090009801998843009000982D
:100B10000299019A114008430399086004B0704794
:100B200084B00390029101920398006800900098AD
:100B300001998843009000980299019A1140084356
:100B40000399086004B0704782B001900091009B47
:100B50000199094A88581843885002B07047C04626
:100B600082B001900091009B0199034A8858184374
:100B7000885002B07047C0464810000082B0019013
:100B800000910098019995225201885002B0704757
:100B900082B00190009100980199952252018850ED
:100BA00002B0704782B0019000910098019995229F
:100BB0005201885002B0704782B001900091009BB2
:100BC0000199034A88581843885002B07047C046BC
:100BD0002810000082B00190009100980199024A0B
:100BE000885002B07047C046D012000081B000901B
:100BF00000990120C2020248885001B07047C046E7
:100C00000100002682B001900091019802494058ED
:100C10000099084002B070473810000081B0009081
:100C200000988100204A0D48885001B07047C046A6
:100C300010B584B0069C0390029101920093029833
:100C4000019908430099084306990843034908435A
:100C500003998900144A885004B010BD8100040033
:100C600081B00090009881000F4A8120885001B027
:100C70007047C04682B00190009100980349084334
:100C800001998900084A885002B07047800004002A
:100C900082B0019000910098802108430199890059
:100CA000014A885002B070470480424082B00190EF
:100CB000009101982721C90140580099084002B0CD
:100CC000704782B00190009101982721C9014058D6
:100CD0000099084002B0704782B0019000910198DD
:100CE0002721C90140580099084002B07047000010
:100CF00081B000900099024A0248885001B07047C4
:100D000004080000030000B182B001900091009B34
:100D10000199034A88581843885002B07047C0466A
:100D20009013000082B001900091009801990C4A44
:100D3000885002B07047C04682B001900091009880
:100D40000199074A885002B07047C04682B00190AE
:100D5000009100980199024A885002B07047C0463D
:100D60009012000082B001900091009B01999D209B
:100D7000420188581843885002B0704782B00190F1
:100D8000009100980199024A885002B07047C0460D
:100D9000B0120000F0B584B001242202344B19686F
:100DA0000392914319605A490D686D04FCD5457E44
:100DB00025409E69A64374199C612024045D032587
:100DC0002C40DE69AE433419DC611F4C25680526D2
:100DD0002660466A37681F6276685E6207262E4084
:100DE0002660C4697F252D02DE69AE436406640C6B
:100DF0003419DC610768456882680092C668026938
:100E00000192426902929A69104C14403A07120BFF
:100E10002D03ADB2AA183243009D2D072D0D1543A9
:100E2000019A1543029A1543007E2843084A02405E
:100E3000101998611868039A1043186008688005B3
:100E4000FCD504B0F0BDC046001340408D00F0FF5B
:100E500072FF0F000649086801229043086070473E
:100E60000349086801221202904308607047C04697
:100E700008010B402549086801221203104308604D
:100E80007047C04681B0014668460170007802494B
:100E9000086001B07047C04608030B4080B582B0BF
:100EA000014601A8018001880F2002021748FFF7C0
:100EB000FBFD02B080BDC04680B582B0014601A8EE
:100EC0000170017802480322FFF7EEFD02B080BDF9
:100ED00000010B4080B582B0014601A80170017885
:100EE0000A483022FFF7E0FD02B080BD0749886064
:100EF000074802689202FCD5012212040B681343D2
:100F00000B600168C906FCD57047C04604010B4060
:100F100004020B4080B58CB00B900A910A9840797E
:100F2000C00700285CD0FFE70A98007907900028E6
:100F300004D0FFE7079820280CD018E00B988821F0
:100F40000691022200F0BAF906990B98032200F0EC
:100F5000B5F919E00B98212109010591022200F051
:100F6000ADF905990B98032200F0A8F90CE00B9855
:100F70000521C9010491022200F0A0F904990B98FF
:100F8000032200F09BF9FFE70B9800220292022354
:100F90000193114600F0ACF9029A0B9803230393D6
:100FA000114600F0A5F90199029B0B980091194692
:100FB0001A4600F0D5F9029B03990B980091194647
:100FC0001A4600F0CDF9019B029A0B98114600F0E9
:100FD000ADF9029A039B0B98114600F0A7F9FFE7C1
:100FE0000A98006808900A98007908A908710A9878
:100FF000807948710B9800F033F80CB080BD000088
:1010000082B00190009100980199024A885002B084
:101010007047C0464810000081B000900099024A15
:101020000120885001B070470811000082B0019083
:101030000091009B0199034A88581843885002B0D8
:101040007047C0462810000081B000900099012030
:10105000C2020248885001B07047C0460100002615
:1010600080B58AB009900891089800790790002807
:1010700004D0FFE70798202812D029E009980899A2
:101080000968491E00F0C6F90998882106910022D6
:1010900000F014F906990998012200F00FF92AE0EE
:1010A000099808990968491E00F0B4F909982D4972
:1010B0000491002200F002F9049909980122059296
:1010C00000F0FCF805990998490700F095F912E03D
:1010D000099808990968490800F09CF909980521C0
:1010E000C9010391002200F0E9F80399099801224F
:1010F00000F0E4F8FFE709980023019319461A4627
:1011000000F0F6F8019A099801230293114600F0C5
:10111000EFF8019B0998009319461A4600F020F950
:10112000019B02990998009119461A4600F018F996
:10113000019B099819461A4600F0F8F8019A029B9B
:101140000998114600F0F2F80998BD494018089A2C
:1011500011795279114302221143034AFFF7CCFC63
:101160000AB080BD01040000BFFF003080B584B02C
:101170000390029103980299496800F04BF9029894
:1011800000780190222856D80198810001A040588B
:101190008746C0462D120000371200002D120000B5
:1011A000371200003712000037120000371200001B
:1011B000371200003712000037120000371200000B
:1011C00037120000371200003712000037120000FB
:1011D0003712000021120000371200002112000017
:1011E00037120000371200003712000037120000DB
:1011F00037120000371200003712000037120000CB
:1012000037120000371200003712000037120000BA
:1012100037120000211200003712000021120000D6
:1012200003980121490700F0E7F805E00398002141
:1012300000F0E2F800E0FFE7039802990969002254
:10124000009200F0ADF8009B03980299C9681A4615
:1012500000F04EF802990878097A08430399784A11
:10126000885004B080BDC04681B000900099D54A36
:10127000D548885001B0704782B001900091009825
:10128000019911221202885002B0704780B584B0D3
:101290000390029101A802700399224A89180091D3
:1012A0000178009889004018009000980299072260
:1012B0009204FFF721FC04B080BDC04680B584B025
:1012C0000390029101A802700399074A89180091BE
:1012D0000178009889004018009000980299034A0C
:1012E000FFF70AFC04B080BD70180000DB06C00FD9
:1012F00010B586B005900491039202A80370059979
:10130000084A8918019101780198890040180190D4
:1013100001980499039A1143034AFFF7EDFB06B0C5
:1013200010BDC046301800007777020010B586B0B7
:1013300005900491039202A8037005993122D2010D
:10134000891801910178019889004018019001984D
:101350000499039A11438F22FFF7CEFB06B010BD0C
:1013600010B587B00091044600980999069405903D
:101370000492039302A801700699084A8918019102
:101380000178019889004018019005980499084354
:10139000039908430199086007B010BD5018000078
:1013A00084B00390029101A802700399064A89183B
:1013B00000910178009889004018009002980099E7
:1013C000086004B07047C0461018000082B0019059
:1013D0000091009800780199974A885000984078C9
:1013E0000199012212038850009880780199AD4A32
:1013F000885002B07047C04680B582B0019000911D
:1014000001980F494018009903221207FFF774FB57
:1014100002B080BD82B00190009100980199024A0B
:10142000885002B07047C0460818000081B0009094
:101430000099034A885801231843885001B0704727
:101440000418000082B00190009100980199074AA9
:10145000885002B07047C04682B001900091009859
:101460000199024A885002B07047C04648100000F7
:1014700081B00090009911200202885801239843FE
:10148000885001B0704781B000900099112002028D
:10149000885804239843885001B0704781B0009069
:1014A000009911200202885801231843885001B086
:1014B0007047000082B001900091009B01990F4A93
:1014C00088581843885002B07047C04682B00190D7
:1014D0000091009B0199094A88581843885002B02E
:1014E0007047C04682B001900091009B0199034A69
:1014F00088581843885002B07047C0462810000032
:1015000081B0009000990120C2020248885001B0C9
:101510007047C0460100002681B0009000988121EC
:1015200049014058C0B201B07047000080B582B098
:10153000019000910198FFF79BFF0198112109028A
:101540004018009A11889378194392881143084AE9
:10155000FFF7BEFA01982F494018009A9179D37984
:101560001943127A11437E22FFF7B2FA02B080BD0E
:101570001867020081B00090009808494058012186
:10158000084001B07047C04681B000900098034900
:101590004058C0B2C00901B07047C04608110000F1
:1015A00081B00090009802494058C0B201B0704725
:1015B0002411000081B000900099024A024888502E
:1015C00001B0704704080000030000B180B584B08A
:1015D00003900291019203980B49401802990B4A1B
:1015E000FFF762FA03980A49401801993F22FFF772
:1015F0005BFA0399074A8818895801221140FFF7BE
:1016000053FA04B080BDC04610110000FFFF000077
:10161000141100000411000082B0019000910098A4
:1016200000780199044A8850009840780199012275
:101630001203885002B070470810000080B582B0D5
:10164000019000910198112109024018009903228C
:10165000D203FFF729FA02B080BD000080B584B044
:10166000019101460198039102A9087003980D4A5F
:10167000801809787022FFF703FA04B080BDC046D5
:1016800080B584B0019101460198039102A90870C8
:101690000398044A801809787022FFF741FA04B0D1
:1016A00080BDC0460C11000082B0019068460170F8
:1016B0000078019989225201885002B0704780B5A4
:1016C00082B0019068460170FFE70198FFF75CFF68
:1016D000002801D0FFE7F8E7019869460978FFF78D
:1016E000E3FF02B080BD000080B584B0039002919A
:1016F0000120009002F090F801460098019102F05C
:1017000035F84C4A1068039908604B490868029BF9
:1017100018600020106008600198002804D0FFE7DE
:10172000012002F051F8FFE704B080BD80B584B01D
:101730003E4801903E49FFF765FA01460198039142
:1017400081214904FFF75EFA029003A880784006E1
:10175000002813D5FFE7012001033448FFF7A6FA5C
:10176000002805D1FFE733490868401E086004E0FF
:1017700030490868401C0860FFE7FFE703A840788D
:10178000C006002813D5FFE7012081052748FFF791
:101790008DFA002805D1FFE726490868401C08603B
:1017A00004E024490868401E0860FFE7FFE702A83C
:1017B000C078C007002813D0FFE7012041041B4870
:1017C000FFF774FA002805D1FFE71B490868401E9F
:1017D000086004E018490868401C0860FFE7FFE75C
:1017E00002A880788007002813D5FFE701200106B2
:1017F0000E48FFF75BFA002805D1FFE70E4908689D
:10180000401C086004E00C490868401E0860FFE7BF
:10181000FFE7064800900649FFF7A2F900988121EA
:101820004904FFF79DF904B080BDC04600000A409E
:1018300000104000380020203C00202080B584B0FB
:101840001A49002088604860086019490861C8602A
:1018500088604860086017490861C860886048600F
:1018600008601549C86088604860086013480290A5
:10187000FFF709FE0298412109010191FFF7ECFDF4
:1018800001990298FFF72EFE02987021FFF7F8FEEB
:101890000D20039001F054FF039801F0A9FF64208C
:1018A00002F068F800F006FA04B080BDE8062020D7
:1018B000F4062020D4062020080720200000104035
:1018C00080B5B0B02FA908702EA9002008702F99FC
:1018D000F04B1A78501C1870EF48815400785A2841
:1018E00004D0FFE7EB4900200870D0E1E948007818
:1018F0000A2801DCFFE7CAE1E74840781F90AA28E0
:101900000DD0FFE71F98BB2873D0FFE71F98CC28A6
:1019100000D1D1E01F98DD2800D144E1AFE1DE49DC
:101920001E9108784A7880188A788018CA788018BA
:101930000A7980184A7980188A798018CA798018BB
:101940000A7A80184A7A82182EA802700078897A5A
:10195000884204D0FFE7CF490020087097E1CE4AC3
:10196000D0780002917841182DA8018051790902A0
:101970001379C9182CAB18931980D179090292797F
:1019800089182BAA1A9211802D99C84A1D9291810B
:101990002C99D1812B99118200211991405EFEF77B
:1019A00027FD0721C9061B91FEF7F7FBC0491C91D3
:1019B000FEF7F3FB19991D9B024618981A60405ECA
:1019C000FEF716FD1B99FEF7E8FB1C99FEF7E5FBF9
:1019D00019991D9B02461A985A60405EFEF708FD51
:1019E0001B99FEF7DAFB1C99FEF7D7FB1D9988605F
:1019F00049E1A949179108784A7880188A788018AF
:101A0000CA7880180A7980184A7980188A798018EB
:101A1000CA7980180A7A80184A7A82182EA8027029
:101A20000078897A884204D0FFE79A49002008703C
:101A30002DE1994AD0780002917841182AA80180B6
:101A4000517909021379C91829AB11931980D179F9
:101A500009029279891828AA139211800021129103
:101A6000405EFEF7C5FC0721C9061491FEF795FB01
:101A70008D491591FEF791FB129902461198AC4BD6
:101A800016931A60405EFEF7B3FC1499FEF785FBCF
:101A90001599FEF782FB1299169B024613985A601D
:101AA000405EFEF7A5FC1499FEF777FB1599FEF74B
:101AB00074FB16998860E6E07749109108784A78B7
:101AC00080188A788018CA7880180A7980184A792C
:101AD00080188A798018CA7980180A7A80184A7A18
:101AE00082182EA802700078897A884204D0FFE715
:101AF000684900200870CAE0674AD07800029178EF
:101B0000411827A80180517909021379C91826AB19
:101B100009931980D17909029279891825AA0B9223
:101B200011805F490E91249127995E4A0F9291810D
:101B30002699D1812599118200210A91405EFEF7F4
:101B400057FC0721C9060C91FEF727FB8321C90525
:101B50000D91FEF722FB0E99FEF71FFB0A990F9BD2
:101B6000024609981A60405EFEF742FC0C99FEF7A7
:101B700014FB0D99FEF711FB0E99FEF70EFB0A9967
:101B80000F9B02460B985A60405EFEF731FC0C99A1
:101B9000FEF703FB0D99FEF700FB0E99FEF7FDFA29
:101BA0000F9988606FE03C49089108784A7880185E
:101BB0008A788018CA7880180A7980184A7980183B
:101BC0008A798018CA7980180A7A80184A7A821825
:101BD0002EA802700078897A884204D0FFE72D4948
:101BE0000020087053E02C4A0192D07800029178CE
:101BF000411823A80180517909021379C91822AB31
:101C000002931980D17909029379C91821AB039302
:101C10001980517A0902127A891820AA0592118036
:101C200000210491405EFEF7E3FB0721C9060691FF
:101C3000FEF7B3FA049902460298184B07931A600C
:101C4000405EFEF7D5FB0699FEF7A7FA0499079BBD
:101C5000024603985A60405EFEF7CAFB0699FEF7FB
:101C60009CFA0499079B024605989A60405EFEF72D
:101C7000BFFB0699FEF791FA0799C86003E0054992
:101C80000020087003E0034900200870FFE730B02F
:101C900080BDC0464B0020204000202008072020A7
:101CA000CDCC1C41D406202000003443F406202073
:101CB0000000FA4480B582B00A480521019100F085
:101CC00017F86420009001F055FE0199064800F0D5
:101CD0000FF8009801F04EFE0199044800F008F852
:101CE00002B080BD8C560000965600009156000050
:101CF00080B584B00390029100200190FFE7019825
:101D0000029988420BD2FFE703980199415C05488C
:101D1000FFF7D5FCFFE70198401C0190EFE704B006
:101D200080BDC04600001040014880687047C04632
:101D3000E806202080B582B00120C106EA48FEF7FF
:101D4000C0FF002804D1FFE701A9012008701BE0B3
:101D5000012041060E48FEF7B4FF002804D1FFE73A
:101D600001A9022008700FE0012081060848FEF753
:101D7000A8FF002804D1FFE701A90320087003E0B1
:101D800001A900200870FFE701A8007802B080BD1B
:101D900000000A4080B501208105D348FEF7D6FF38
:101DA00080BDC04680B582B0014601A80180008890
:101DB000002806D1FFE7FFF7EDFF0B490020088060
:101DC00010E009490888401C088080B201A90988F0
:101DD000884206DBFFE700F009F80349002008808D
:101DE000FFE7FFE702B080BD4C00202080B5012056
:101DF0008105BD48FEF7C2FF80BDC04680B584B0F6
:101E0000012003900103B8480090FEF78BFF009873
:101E100003994903FEF786FF0A48019000220292C7
:101E20001146FFF7BDFA00980421FEF77BFF0098EA
:101E30000821FEF777FF01980299039AFFF7B0FA9D
:101E400004B080BD0000864080B582B001A90020AA
:101E50000870FFE701A8007807281EDCFFE7694645
:101E600000200870FFE7684600787F280FDCFFE756
:101E700068460078C1009048411801A80278002007
:101E80008854FFE70098401C69460870EBE7FFE7BD
:101E90000198401C01A90870DCE700F0D1F802B0FD
:101EA00080BDC04670B586B000910146009805AA75
:101EB000117004A908700878C30803A803700B7890
:101EC00007210B4002A90B700B780121994001AB4F
:101ED00019701178CB007849CC180578635DDB4325
:101EE0006355019E1378DB00CC180578635D33439E
:101EF00063551278D20089180278885CC0438854F0
:101F000006B070BD86B000910246009805A90A701F
:101F100004AA10701078C30803A80370137807226E
:101F2000134002AA1370137801229A4001AB1A7071
:101F3000019B0978CA00604989180278885C1843B7
:101F4000885406B07047C04680B584B000F0B6F83B
:101F5000AE200021039100F0C1F90399084600F07A
:101F6000BDF90399102000F0B9F9039940200190C0
:101F700000F0B4F90399812000F0B0F90399CF2063
:101F800000F0ACF90399A12000F0A8F90399C8204A
:101F900000F0A4F90399A620029000F09FF903999C
:101FA000A82000F09BF903993F2000F097F90399CE
:101FB000D32000F093F90399084600F08FF90399B4
:101FC000D52000F08BF90399802000F087F9039960
:101FD000D92000F083F90399F12000F07FF90399EB
:101FE000DA2000F07BF90399122000F077F90399C9
:101FF000DB2000F073F90198039900F06FF9039961
:10200000202000F06BF90399022000F067F9039992
:102010008D2000F063F90399142000F05FF9039913
:10202000A42000F05BF90298039900F057F9039996
:10203000AF2000F053F9FFF707FF04B080BD0000A8
:1020400080B584B003A900200870FFE703A80078DA
:1020500007282FDCFFE70398B030C0B200210191C0
:1020600000F03CF90199084600F038F90199102078
:1020700000F034F9019802A90870FFE702A800787F
:102080007F2811DCFFE702A80078C1000A48401849
:1020900003A90978405C012100F020F9FFE70298CC
:1020A000401C02A90870E9E7FFE70398401C03A958
:1020B0000870CBE704B080BD4E00202080B584B00E
:1020C000012081020291AC480190FEF76BFD0A20CD
:1020D000039001F03DFC01980299FEF72DFE039854
:1020E00001F036FC04B080BD00200A4010B58EB06F
:1020F0000DAC20700CA801700BA802700AA8037028
:102100000C9904AA117001780191C808029049073E
:10211000401C0029039001D1029803900198039973
:102120004008484306A908700B98203805A9087094
:1021300009A900200870FFE709A8007806A9097816
:10214000884277DAFFE70AA800780C280CD1FFE76D
:1021500005A800780C2141433948401809A909789D
:10216000405C07A9087023E00AA8007810280BD16A
:10217000FFE705A8007801013048401809A909784F
:10218000405C07A9087012E00AA8007818280CD152
:10219000FFE705A80078242141432748401809A9F2
:1021A0000978405C07A9087000E043E0FFE7FFE71B
:1021B00008A900200870FFE708A80078072833DC8A
:1021C000FFE707A800780006002807D5FFE70DA85D
:1021D00000780CA90978FFF795FE06E00DA80078B5
:1021E0000CA90978FFF75EFEFFE70798400007A9F2
:1021F00008700C98411C0CA80170007804A909789B
:10220000401A0AA90978884208D1FFE704980CA966
:1022100008700D98401C0DA9087005E0FFE70898AC
:10222000401C08A90870C7E7FFE70998401C09A9E6
:10223000087081E70EB010BDFF6000000F5B00006A
:102240009B56000010B58AB009AC207008A8017038
:10225000079206A80370FFE707980178002020295D
:1022600005900DDBFFE7079801780120002203921B
:102270007F29049001DB0398049004980590FFE700
:102280000598C007002827D0FFE709A8019000782B
:1022900008A90978079A127806AB02931B78FFF712
:1022A00025FF019802990A785308099AD2180270FA
:1022B00000780A788021891A884209DDFFE709A998
:1022C0000020087006990898401808A90870FFE7D0
:1022D0000798401C0790BFE70AB010BD80B586B0D4
:1022E00005AA107004A801700078002806D0FFE746
:1022F0000120C1028A48FEF71FFD05E00120C1024E
:102300008748FEF74FFCFFE7012041028448FEF7B3
:1023100049FC03A900200870FFE703A800780728FC
:1023200027DCFFE705A800780006002806D5FFE7B0
:10233000012001027A48FEF7FFFC05E001200102BE
:102340007748FEF72FFCFFE70598400005A90870C5
:1023500001204102029172480190FEF7EDFC0198C4
:102360000299FEF71FFCFFE70398401C03A90870C1
:10237000D3E706B080BDC04600200A4080B58CB0CF
:10238000122005210191FEF783FC01200790010234
:1023900060480890FEF71EFC01991320FEF778FCB8
:1023A000079908984902FEF715FC142002210291B2
:1023B000FEF76EFC02991520FEF75CFC02991020D6
:1023C000FEF766FC02991120FEF754FC02991F20CB
:1023D000FEF75EFC02992B20FEF74CFC1C20FEF75A
:1023E0003FFC1D20FEF73CFC0E20FEF739FC0F20C1
:1023F000FEF736FC2E20FEF711FC2120FEF70EFC26
:102400003520FEF70BFC2620FEF708FC0D20FEF71A
:1024100027FC3120FEF724FC079800230593009346
:102420004204039239201946FEF702FC039A059BE9
:10243000009336201946FEF7FBFB039A059B009399
:102440003A201946FEF7F4FB1920FEF709FC182084
:10245000FEF706FC1A20FEF703FC1B20FEF700FC2B
:10246000059B079800930204049233201946FEF757
:10247000DFFB049A059B009337201946FEF7D8FB33
:10248000049A059B00932F201946FEF7D1FB049A6E
:10249000059B009323201946FEF7CAFB049A059B6F
:1024A000009325201946FEF7C3FB049A059B009371
:1024B0002A201946FEF7BCFB049A059B00932C20AA
:1024C0001946FEF7B5FB089880210691FEF756FBEA
:1024D00006990898FEF77EFB079908980906FEF70B
:1024E00013FC08980C49FEF73DFC08980B4909912C
:1024F000FEF72AFB08980999FEF75EFBB7480A9099
:1025000008490B91FEF73AFB0A980B99FEF762FB1C
:102510000CB080BD00000A40041001000010420110
:1025200000200A400C3F400080B582B00649AD480B
:102530000190FEF74BFF01980449FEF717FE019842
:10254000FEF76AFD02B080BD5B6E0000606E0000A9
:1025500080B584B01B49E7480390FEF737FF039826
:102560001949FEF7D7FC03980023019300931946FD
:102570001A46FEF7F5FE019A03981146FEF786FE0D
:10258000019A03981146FEF70BFF019B0398012166
:102590000291009119461A46FEF7E2FE0199029A4D
:1025A0000398FEF773FE0199029A0398FEF7F8FE6E
:1025B0000398FEF731FD03980321FEF75DFE04B09A
:1025C00080BDC046746E0000786E000080B582B099
:1025D00000200190FEF756FC012000904002FEF71B
:1025E0005DFC0198FEF768FCFEF734FCFEF738FC52
:1025F0000848FEF7CFFB1020FEF76CFCFEF73AFC14
:102600000198FEF773FC0098019901F05FF902B0A0
:1026100080BDC046806E000080B582B00B49704816
:102620000190FEF7D3FE01980949FEF79FFD01983E
:1026300002210091FEF7FAFC0099112001F046F901
:102640000198FEF7E9FC02B080BDC046A86E00000C
:10265000AC6E000080B582B00D4963480190FEF772
:10266000DBFF01980B49FEF761FF01980021FEF79F
:10267000E5FF019815212D22FEF7A8FF0198012101
:102680008902FEF723FF0198FEF708FF02B080BD24
:10269000C06E0000C26E000080B582B00D49534884
:1026A0000190FEF7B9FF01980B49FEF73FFF019833
:1026B0000021FEF7C3FF019815212D22FEF786FFAA
:1026C000019801218902FEF701FF0198FEF7E6FE5D
:1026D00002B080BDCC6E0000CE6E000080B582B02E
:1026E0000B4943480190FEF797FF01980949FEF70F
:1026F0001DFF01980021FEF7A1FF019841218900EB
:102700001B22FEF763FF0198FEF7C8FE02B080BDF2
:10271000D86E0000DA6E000080B500F01DF8FFF7FB
:102720002DFEFFF753FFFFF713FFFFF775FFFFF7CE
:10273000FBFEFFF78FFFFFF7AFFFFFF7CFFF044967
:10274000B8220020885403497422885480BDC046B2
:10275000EC042020A805202080B588B01E480090F9
:10276000FEF7C6FA62480190FEF7C2FA614802908D
:10277000FEF77AFD1A480390FEF776FD194804909B
:10278000FEF772FD18480590FEF714FF17480690F3
:10279000FEF710FF16480790FEF70CFF0098FEF7B3
:1027A00025FA0198FEF722FA0298FEF74DFC0398ED
:1027B000FEF74AFC0498FEF747FC0598FEF7A0FEDA
:1027C0000698FEF79DFE0798FEF79AFE1020FEF78A
:1027D0004DF908B080BDC04600000A4000200A4004
:1027E00000808640000087400080104000001040BC
:1027F0000020104080B58CB00B900A910B980128F6
:1028000012DBFFE701200890010339480990FEF729
:1028100089FA089909984903FEF7BAF90B993548DE
:102820000022FEF7BDFD29E00B98002813D5FFE735
:102830000120069041032E480790FEF773FA06998F
:1028400007980903FEF7A4F90B9841422948002292
:10285000FEF7A6FD11E00120049001032448059035
:10286000FEF796F9049905984903FEF791F9214876
:1028700000221146FEF794FDFFE7FFE70A980128C2
:102880000FDBFFE71A4803900421FEF74BFA039889
:102890000821FEF77DF90A9916480122FEF780FD0E
:1028A00023E00A98002810D5FFE71148029008217C
:1028B000FEF738FA02980421FEF76AF90A984142B5
:1028C0000C480122FEF76CFD0EE00948019004213E
:1028D000FEF75EF901980821FEF75AF90548002134
:1028E0000122FEF75DFDFFE7FFE70CB080BDC046AB
:1028F00000200A400000864080B584B00290029813
:10290000401E000E002803D0FFE70120039011E0D5
:102910000298401E0949086000200190C04303212D
:1029200000F096FF019812490860054A07211160DE
:102930000390FFE7039804B080BDC04614E000E0B8
:1029400010E000E080B57D208000FFF72BFA80BD0D
:1029500080B50448FFF7D0FF0021C84300F078FF9E
:1029600080BDC04680380100014800687047C046FD
:1029700018E000E080B59AB0EA480221FEF740FB7B
:10298000E94908680A30086019A818A9FEF7ACFEE2
:102990001898404218901998E44908601898E4493A
:1029A0000860199818994018FDF722FD3F21090683
:1029B000FDF7F3FBE349FDF72DFC0146E2480990E2
:1029C0000068FDF791FB09990860FC480078002831
:1029D00000D1E7E1FC480078002810D0FFE7D54897
:1029E0000168179101681691D34A00211160D34AFA
:1029F00011600068FDF7FCFCD1490860ABE115A946
:102A000000200870F1480078002800D08DE000F028
:102A1000B9FA14A9087013A90020087012A9087047
:102A2000FFE712A80078062814DCFFE714A8007856
:102A300012A90978C840C007002805D0FFE71398FD
:102A4000401C13A90870FFE7FFE71298401C12A969
:102A50000870E6E713A8007803280DDBFFE7E348DA
:102A60000078002808D1FFE7E04901200870D2482B
:102A70000068DF490860FFE7DC480078002853D091
:102A8000FFE7FFF751F9D2490968FDF77EFB119086
:102A9000FFE71198CF49FDF773FC002806D1FFE747
:102AA0001198D149FDF720FB1190F2E7FFE711984B
:102AB000C949FDF781FC002806D1FFE71198C949F3
:102AC000FDF712FB1190F2E711980021FDF774FC5D
:102AD000002806D1FFE711980121C907484011904D
:102AE000FFE7B5480068C2490968411A7D20020124
:102AF0000120002307939142089001D8079808907D
:102B0000089810A908701198BA49FDF747FC0028E9
:102B100005D1FFE710A80078002804D0FFE715A929
:102B200001200870FFE7FFE747E0A8480078012888
:102B300041D1FFE7FFF7F8F8A5490968FDF725FB44
:102B40000F90FFE70F98A349FDF71AFC002806D164
:102B5000FFE70F98A449FDF7C7FA0F90F2E7FFE7E8
:102B60000F989D49FDF728FC002806D1FFE70F9834
:102B70009C49FDF7B9FA0F90F2E70F980021FDF795
:102B80001BFC002806D1FFE70F980121C907484028
:102B90000F90FFE70F989149FDF7F2FB002809D14C
:102BA000FFE78F480078002804D1FFE78C49012017
:102BB0000870FFE700E0FFE7FFE715A800780028AE
:102BC00019D0FFE77C48006895490968401A954983
:102BD00008607A49002006900870FFF70FF900F0AE
:102BE00003FB00F009FB0698179016907F490870C8
:102BF0007B490870AEE075480078002809D1FFE7EE
:102C0000814800687D490860804800687D49086007
:102C100008E079480068794908607948006879498E
:102C20000860FFE700F004F90C900C980EA90DAABB
:102C300000F018FA0C98764908600D9875490860FC
:102C4000624801780F200A2204920029059001D0E1
:102C50000498059005980E900E98FDF7C9FB6E49F3
:102C600008605F480078002834D0FFE76B4801789F
:102C7000491C0170007864281ADBFFE74E480068A1
:102C800067490968401A674908604C480021039168
:102C900001700846FFF7AEFD00F0A6FA00F0ACFAAE
:102CA0000398179016904E4908705C49087010E020
:102CB0000E9A5A4800786421081A5043FDF704FC24
:102CC0000E900E98002803DCFFE701200E90FFE72E
:102CD000FFE7FFE70E980D99401A17900E980D998F
:102CE0004018169017980F21C943884204DCFFE76B
:102CF0000E20C0431790FFE71798102803DBFFE76B
:102D00000F201790FFE716980F21C943884204DC73
:102D1000FFE70E20C0431690FFE71698102818DB37
:102D200014E0C0460080864018072020E4042020DC
:102D3000E80420203000202028072020240720201D
:102D40002406202000C06E45200620200F2016906B
:102D5000FFE7FFE7FFE71798199900F055FA40429F
:102D60000B901698189900F0BFFA40420A900B9801
:102D70002D4901912D4A029200F07CFE0199029AA0
:102D80000B900A9800F076FE0A900B980A99FFF7CC
:102D900031FD0B9840420A4908600A9840420949AF
:102DA000086007E006490020086006490860FFF750
:102DB00025F8FFE71AB080BD18072020CC06202098
:102DC000D8042020DC042020CD062020220720204B
:102DD000D006202000003443000034C300007041BE
:102DE000E00420200000B4430000B4C320072020EA
:102DF0001C0720200000A0401C00202014002020E0
:102E00001000202008002020180020200C00202086
:102E1000280720202407202024062020E104202049
:102E20003806202034062020C1E0FFFF3F1F0000AD
:102E300080B588B000F0A6F806A9087000200590BB
:102E4000049003A90870FFE703A8007806281FDC98
:102E5000FFE706A8007803A90978C840C007002842
:102E600010D0FFE703A80078810045484158059835
:102E7000FDF73AF9059004987F21C905FDF734F96B
:102E80000490FFE7FFE70398401C03A90870DBE705
:102E900006A800781F2108401F280ED0FFE706A8CB
:102EA00000787C2108407C2807D0FFE706A800783E
:102EB0003E2108403E2807D1FFE730490020086046
:102EC0002B49088007904FE004980021FDF758FA3D
:102ED000002826D1FFE726490020019008800598A8
:102EE0000499FDF797F9019902900298FDF748FAC5
:102EF000002804D1FFE72049012008700BE0029868
:102F00000021FDF759FA002804D1FFE71A49FF20F4
:102F10000870FFE7FFE702981849086002980790D9
:102F200022E013480188491C018000880B2804DB3B
:102F3000FFE7104901200870FFE700210E484056C6
:102F4000401C002803D1FFE7734807900CE00021E4
:102F500009484056012803D1FFE77048079003E075
:102F6000064800680790FFE7079808B080BDC04694
:102F7000C4062020C6062020BE062020C006202031
:102F80005070000080B582B001A9002008700120B7
:102F900001063248FDF7A0FE002806D0FFE70198A1
:102FA0000121084301A90870FFE7012041062B48D1
:102FB000FDF792FE002806D0FFE7019802210843A2
:102FC00001A90870FFE7012001052448FDF784FEF0
:102FD000002806D0FFE701980421084301A90870E2
:102FE000FFE7012081031E48FDF776FE002806D08A
:102FF000FFE701980821084301A90870FFE70120B5
:1030000001041748FDF768FE002806D0FFE7019885
:103010001021084301A90870FFE7012041040F486F
:10302000FDF75AFE002806D0FFE70198202108434B
:1030300001A90870FFE70120C1040848FDF74CFE14
:10304000002806D0FFE701984021084301A9087035
:10305000FFE701A8007802B080BDC04600200A400A
:1030600000000A4080B588B0079006910592079845
:103070002949FDF7AFF9002808D0FFE7069900209D
:10308000086005990420C043086042E0079823497E
:10309000FDF7A0F9002807D0FFE706990020086097
:1030A00005990520086034E0069908200860079813
:1030B0001B4900910968FDF768F81A490968FDF78E
:1030C0006CF8009904900798086017480068079901
:1030D000049A0192FDF761F80199FDF705F8039054
:1030E0000398FDF7A5F902900298102803DBFFE78B
:1030F0000F200290FFE702980F21C943884204DCA9
:10310000FFE70E20C0430290FFE702980599086090
:10311000FFE708B080BDC04600007AC400007A44D2
:10312000C8062020080020201400202080B582B08E
:103130000B48FEF7F1F9019001980B2804D1FFE745
:103140000748FEF72DFA08E00198052804D1FFE7AB
:103150000348FEF725FAFFE7FFE702B080BDC0464F
:103160000080104080B582B00E48FEF7D5F901907E
:1031700001980B280AD1FFE70A48FEF711FA014629
:10318000684601700078FEF79BFB08E0019805286F
:1031900004D1FFE70348FEF703FAFFE7FFE702B0B9
:1031A00080BDC0460000104080B582B0B648FEF732
:1031B000B3F9019001980B280AD1FFE7B248FEF756
:1031C000EFF9014668460170007800F09BFA08E0CC
:1031D0000198052804D1FFE7AB48FEF7E1F9FFE7C6
:1031E000FFE702B080BDC0463E49002008603C4970
:1031F00008603A49086070477B49002008607949B7
:10320000086070490860704780B58AB009900891DD
:1032100009980899401A0790684800680290079832
:10322000FDF7E6F801906648006800902B480068BA
:10323000FDF7DEF801460098FCF7AFFF0199024662
:1032400002980392FCF7A9FF0399FCF74DFF059044
:103250005D48006804900998FDF7CAF80146049893
:10326000FCF79BFF0599FCF73FFFFDF7E1F806909F
:1032700006987D218901884203DBFFE755480690C7
:103280000EE006985149884203DCFFE7504806905B
:1032900005E0079A1149086880180860FFE7FFE712
:1032A0000E4800684C49884205DBFFE70B497D204A
:1032B00040010860FFE7094800684849884204DC8B
:1032C000FFE7064946480860FFE707980449086099
:1032D00006980449086006980AB080BD300720208F
:1032E000340720202C07202080B58AB0099008914F
:1032F00009980899401A079030480068029007988A
:10330000FDF776F80190FB48006800902D480068B2
:10331000FDF76EF801460098FCF73FFF0199024661
:1033200002980392FCF739FF0399FCF7DDFE059044
:10333000EE48006804900998FDF75AF80146049891
:10334000FCF72BFF0599FCF7CFFEFDF771F806900F
:1033500006987D218901884203DBFFE71D4806901E
:103360000EE006981949884203DCFFE718480690EA
:1033700005E0079A1349086880180860FFE7FFE72F
:10338000104800681449884205DBFFE70D497D209D
:1033900040010860FFE70B4800681049884204DCE0
:1033A000FFE708490E480860FFE707980D490860E5
:1033B00006980D49086006980AB080BD28002020B4
:1033C000240020203C07202020002020C0E0FFFF18
:1033D000C1E0FFFF3F1F0000A10F00005FF0FFFFF3
:1033E00060F0FFFF400720203807202080B586B01E
:1033F000059004A8017002A900200870FFE702A848
:10340000007804A90978884224DAFFE7059802A920
:1034100009788900405803A900F000FB01A90020A9
:103420000870FFE701A8007803280DDCFFE701A87A
:10343000017803A8415C1448FEF741F9FFE70198C1
:10344000401C01A90870EDE7FFE70298401C02A9A3
:103450000870D4E7694600200870FFE768460078E6
:1034600003280DDCFFE7684601780648415C064802
:10347000FEF725F9FFE70098401C69460870EDE764
:1034800006B080BDE46E00000020104010B5AAB068
:103490000AA8802100F0D4FF014609A80170007835
:1034A000022801DCFFE718E108A9FF20087007A93E
:1034B000087006A900200870FFE706A8007809A98F
:1034C0000978884230DAFFE706A801780AA8405C4C
:1034D0003D2804D1FFE7069808A90870FFE70021FE
:1034E00008A84056012819DBFFE706A801780AA8BA
:1034F000405C21280ED0FFE706A801780AA8405CAE
:103500000D2807D0FFE706A801780AA8405C0A2822
:1035100004D1FFE7069807A9087005E0FFE70698C1
:10352000401C06A90870C8E7002108A840560228D8
:1035300006DBFFE7002107A84056002801D5FFE77A
:10354000CBE007A800780899491CC9B2884201DC81
:10355000FFE7C2E00898411C0798401EC9B2C2B2FA
:103560000AA8019000F0CAFE019A0590002308A95C
:10357000C8568018801E047804A80470C95689189B
:10358000491E097803AA1170007850281ED1FFE760
:1035900003A80078312804D1FFE70598584908604E
:1035A00013E003A80078322804D1FFE705985349B7
:1035B000086009E003A80078332804D1FFE70598E4
:1035C0004D490860FFE7FFE7FFE75EE004A80078E9
:1035D000492811D1FFE703A80078312801D1FFE77E
:1035E00009E003A80078322804D1FFE70598414993
:1035F0000860FFE7FFE747E004A8007844281ED1F1
:10360000FFE703A80078312804D1FFE7059838497F
:10361000086013E003A80078322804D1FFE705987A
:103620003249086009E003A80078332804D1FFE795
:1036300005982D490860FFE7FFE7FFE723E004A8AE
:10364000007856280CD1FFE703A80078312806D16E
:10365000FFE70598FCF7ECFE22490870FFE711E050
:1036600004A8007854280CD1FFE703A8007831287B
:1036700006D1FFE70598FCF7DBFE19490860FFE774
:10368000FFE7FFE7FFE7FFE7FFE70798401C02A916
:103690000870002107A841560AA8405C0D2817D1E0
:1036A000FFE7002107A84056401C09A90978884275
:1036B0000EDAFFE7002107A840560AA94018407813
:1036C0000A2805D1FFE70298401C02A90870FFE70D
:1036D00002A8007800F0F2FEFFE72AB010BDC04655
:1036E0003000202030062020100020202000202044
:1036F0000C002020240020201C0020202800202056
:103700001800202080B582B0014601A80170007821
:1037100000F004FF02B080BD81B001466846017030
:1037200000214056002809D4FFE7684601781F2091
:103730000140012088400C490860FFE701B0704754
:1037400081B001466846017000214056002809D426
:10375000FFE7684601781F200140012088400249A8
:103760000860FFE701B0704780E200E081B00146E9
:10377000684601700021405600280DD4FFE76846D6
:1037800001781F2001400120884004490860BFF3F0
:103790004F8FBFF36F8FFFE701B0704780E100E00C
:1037A00081B001466846017000214056002809D4C6
:1037B000FFE7684601781F20014001208840234927
:1037C0000860FFE701B0704781B0014668460170AC
:1037D00000214056002809D4FFE7684601781F20E1
:1037E00001400120884019490860FFE701B0704797
:1037F00081B001466846017000214056002809D476
:10380000FFE7684601781F200140012088400F49EA
:103810000860FFE701B0704782B00146684601705A
:103820000021405600280BD4FFE70848006869468D
:1038300009781F221140C84001210840019002E090
:1038400000200190FFE7019802B0704700E100E01E
:1038500070B582B0024601A8027000910021405666
:10386000002816D4FFE7002401A908570322D343F8
:103870001840364A805809578C07E50EFF24AC40A3
:10388000A043009CA401E4B2AC40204319408850FE
:103890001AE001A908780F24204008380322D343F6
:1038A0001840294A8058002549578D07EE0EFF25FC
:1038B000B540A843009DAD01EDB2B540284321407D
:1038C000083919408850FFE702B070BD70B582B06A
:1038D000024601A80270009100214056002816D42B
:1038E000FFE7002401A908570322D3431840174AD1
:1038F000805809578C07E50EFF24AC40A043009C7C
:10390000A401E4B2AC402043194088501AE001A958
:1039100008780F24204008380322D34318400A4A6D
:103920008058002549578D07EE0EFF25B540A84366
:10393000009DAD01EDB2B540284321400839194042
:103940008850FFE702B070BD1CED00E000E400E02D
:1039500080B582B001900198D22803D3FFE7D1202F
:103960000190FFE701997D20C000484300F00EF868
:1039700002B080BD80B582B00190019902484843F1
:10398000FDF774F802B080BD8038010080B586B0C4
:10399000059005981E49884203D3FFE71D4805900E
:1039A000FFE70599502048430590002000900490BF
:1039B000FEF7DAFF014600980391029001A9087012
:1039C000FFE7FEF7D1FF029002980399884204D9DD
:1039D000FFE701A901200870FFE701A8007800288F
:1039E00007D0FFE703980299401A0B49401804904A
:1039F00004E003980299401A0490FFE7049805999F
:103A0000884201D3FFE700E0DBE706B080BDC04697
:103A10003433030033330300FFFFFF0083B0029011
:103A20000191029800900098019908700098000A8E
:103A30000199487068464188019A9170C07801994F
:103A4000C87003B07047000080B582B0019000914B
:103A5000FFE70748FDF78EFD002801D0FFE7F8E7F4
:103A600001A801780248FDF72AFE019802B080BD46
:103A70000080104084B00290019100920298009959
:103A8000884203DDFFE7009803900AE0029801995D
:103A9000884203DAFFE70198039002E0029803905E
:103AA000FFE7039804B07047F0B5DDB00020489000
:103AB0005C90FEF731FEE248FDF7B8FC012046902D
:103AC000FFF72AFE4698FFF76BFE11204790FFF79D
:103AD00023FE4798FFF764FEFEF73AFFFEF734FA3D
:103AE000FEF7B2F94899D74A10230846FEF7AAFB19
:103AF000FEF7A6FAFDF7A2FE412001014991D24846
:103B00004A90FDF79FFC49994A98FDF7D3FC4A98E3
:103B10007021FDF7A3FD0E204B90FFF7FDFD4B98A4
:103B2000FFF73EFEC94800F01FFDFFE7FEF702F970
:103B300001465BA801700078002800D1D1E0C4489C
:103B40000078002800D0CCE01420FFF701FFFEF73A
:103B5000F1F85BA90978884200D0C1E05BA8007841
:103B600001286BD1FFE7BB48007801280DD1FFE7A2
:103B7000B9480168491E01600068002804D5FFE7C4
:103B8000B54900200860FFE757E0B24800780228F6
:103B900021D1FFE7B14801784A42514101700078D4
:103BA00000280DD0FFE7AE4901200870AD49002084
:103BB0000860AD490968AD4A1160AD49086009E087
:103BC000A74900200870FEF719F9FFF70DFBFFF772
:103BD00013FBFFE730E0A24801784A4251410170EF
:103BE0000078002819D0FFE79E4900204590086022
:103BF0009D4909689D4A11609D490860FEF794F847
:103C0000014645989B4A11609B4908709B49087082
:103C10009B4908709B490870FFE79148007800288D
:103C200009D1FFE7FEF7EAF8FFF7DEFAFFF7E4FA5B
:103C3000FCF712FFFFE7FFE7FFE750E05BA8007823
:103C4000022822D1FFE783480078022812D1FFE73B
:103C50008248007800280DD0FFE77F480168491EA0
:103C600001600068002804D5FFE77B490020086058
:103C7000FFE709E0774844900078401C0321FCF7F7
:103C800004FC44980170FFE728E05BA80078032853
:103C900023D1FFE76F48007801280AD0FFE76D487D
:103CA000007802280AD1FFE76C480078002805D088
:103CB000FFE769490868401C08600DE072484390BE
:103CC0000078401C0321FCF7E0FB43980170FFF7EC
:103CD0008BFAFFF791FAFFE7FFE7FFE7FFE7FFE760
:103CE000FFE75B985A490870FFF7D0FB66480078F9
:103CF000002809D1FFE76548006865490860654804
:103D000000686549086008E0644800686049086028
:103D10006348006860490860FFE7534800686149EC
:103D20000968401A642800D29AE24F4800685D4949
:103D30000860484800785C490978884207D0FFE766
:103D4000FEF782F84348007857490870FFE7444877
:103D50000078002807D0FFE7434800684349096816
:103D6000401A429003E0424800684290FFE74298C0
:103D70005490384800784190002809D0FFE74198D6
:103D8000012800D113E14198022800D1B1E14BE2B2
:103D900055A840903C480078002803D1FFE7022056
:103DA0003F900CE038480178042005223D9201291B
:103DB0003E9001D03D983E903E983F90FFE73F985F
:103DC0003A90274801783948394A3B9200293C907B
:103DD00001D13B983C903C9837905498FCF71AFBE3
:103DE00000223992334BFCF753FA3A9A379B044638
:103DF000409838940C463899019400912E4900F06F
:103E0000C3FB399955AA0C230846FEF71BFA1E4836
:103E10000078002804D1FFE71C480068369003E0D2
:103E20001E4800683690FFE7369853901648007891
:103E3000002843D1FFE717480068359042E0C046AC
:103E4000000086404D6F000000201040E86E00002A
:103E5000280620203006202030002020CD062020FB
:103E6000CC062020200620201807202038062020FD
:103E700034062020D00620202107202020072020E3
:103E8000E0042020E1042020220720201800202028
:103E9000140020200C002020080020201C002020DE
:103EA000100020202C0620202C0020202C6F000049
:103EB000306F000000408F4040700000EE48006806
:103EC0003590FFE735985290FDF72EFFFCF7C9FAC1
:103ED00029902A915398FCF7C4FA2B902C91529870
:103EE000FCF7BFFA299A2A9B04462B980D462C9979
:103EF0000395029401910090F94955A8329000F081
:103F000043FB329A002034900C2333931946FEF77A
:103F100099F9E44801682D91E3490A682E920068F6
:103F200009684018C10F40184010FCF761FAE549D4
:103F3000FCF733F9FCF795FA2D9A2E9B044632983C
:103F40002F940C462F9901940091E64900F01CFB38
:103F5000329A339B34981821FEF774F9D4480068DC
:103F60003090D44800683190DF480068FCF760FA70
:103F7000309A319B014632980091DC4900F004FBF5
:103F8000329A339B34982421FEF75CF9B8480068D4
:103F9000FCF767FA024632980B46D54900F0F4FA6E
:103FA000329A339B34983021FEF74CF93CE1FEF70E
:103FB000E9FF014651A801700778189701203A4699
:103FC0000240B807C30F7807C00F3907C90FFC06B6
:103FD000E40FBD06ED0F7E06F60F059704960395D8
:103FE000029401910090B54955A8229000F0CCFAB6
:103FF000229A002124910C2323930846FEF722F9EC
:104000002298A84919910A68A7491A910B68AC49E6
:1040100000F0BAFA229A239B24981946FEF712F967
:1040200019980068FCF7E4F9A6491B91FCF7B5F86C
:10403000FCF717FA02461A981C921D910068FCF7CB
:10404000D7F91B99FCF7A9F8FCF70BFA1C9A1D9BF2
:10405000044622981E940C461E99019400919A4998
:1040600000F092FA229A239B24981821FEF7EAF88E
:104070005498FCF7CFF9249A944BFCF709F91F9058
:1040800020917B480068FCF7ECF91F9A209B0446BE
:10409000229821940C462199734D2D680295019424
:1040A00000918B4900F070FA229A239B24982421D6
:1040B000FEF7C8F87E48006825907E480068269084
:1040C0006A4801788348844A27920029289001D1C0
:1040D000279828902298269B259A289900917F4915
:1040E00000F052FA229A239B24983021FEF7AAF876
:1040F0009AE062480068FCF7B4F90D900E916048B0
:104100000068FCF7AEF90D9A0E9B019100905D4995
:1041100055A8159000F038FA159A002117910C2334
:1041200016930846FEF78EF852480068FCF799F996
:104130000F90109150480068FCF793F90F9A109B6C
:104140000446159811940C461199019400914E491A
:1041500000F01AFA159A169B17981946FEF772F88E
:104160004A480068FCF77DF91290139148480068AE
:10417000FCF777F914900C4646480068FCF771F993
:10418000129A139B054615980E46149903960295AC
:1041900001940091404900F0F7F9159A169B179881
:1041A0001821FEF74FF82F480078002823D0FFE7AA
:1041B0002D4802683B4803683B48006800903B4933
:1041C00055A80A9000F0E0F90A9A00200C902421EA
:1041D0000C230B93FEF736F80A9835490A683549DF
:1041E0000B68354900F0D0F90A9A0B9B0C983021E6
:1041F000FEF728F817E0294955A8079000F0C4F900
:10420000079A0020099024210C230893FEF71AF83E
:104210000798234900F0B8F9079A089B09983021BC
:10422000FEF710F8FFE7FFE71E480068FCF7E0F82C
:104230004C901D480068FCF7DBF84D902D48006855
:104240004E902D480068FCF7D3F84F90FDF76CFDB9
:1042500050904CA80521FFF7C9F8FDF7F1FEFFE7E4
:1042600064E4C046CD06202030002020CC0620206B
:10427000200620201C0020201000202018002020D4
:104280000C002020C66F0000D96F000028002020FD
:104290002400202020002020AE6F0000086F0000C6
:1042A0001A6F0000E4042020E8042020756F00004D
:1042B000D8042020DC042020676F0000346F000049
:1042C000A06F0000C2340C3D2E70000000408F40F3
:1042D0008B6F00002C6F0000306F00002170000019
:1042E000EC6F00000470000024062020586F0000CE
:1042F00019700000280720202407202080B590B0E6
:104300000E900DA801700CA90A700BAA0020107065
:104310000A900D9A09A802700078097888420FDC8B
:10432000FFE70E9809A90978405C2D2808D1FFE71E
:104330000BA9012008700998401C09A90870FFE723
:1043400008A90020087007A90870099806A9087034
:10435000FFE706A800780CA90978884258DCFFE737
:104360000E9806A90978405C2E2809D1FFE707A915
:104370000120087006980999401A08A9087042E0BF
:104380000E9806A90978415C303905A801700078BB
:104390000A2803DBFFE700200F904AE007A8007817
:1043A00000281ED0FFE705A80078FCF72CF8039042
:1043B00006A8007809A90978401A08A90978401ABE
:1043C000FCF716F801461D4800F0B0FD01460398C1
:1043D0000A9A0492FBF7E1FE0499FBF785FE0A9026
:1043E00010E00A98019005A80078FCF70CF8014647
:1043F000019802911049FBF7D0FE0299FBF774FE79
:104400000A90FFE7FFE70698401C06A90870A0E79E
:104410000BA80078002806D0FFE70A980121C907F9
:104420004840009002E00A980090FFE700980F9043
:10443000FFE70F9810B080BD00002041CDCCCC3DEF
:10444000B0B587B0069005A8017004A900200870D7
:104450004348007803A90870FFE703A801783F48A4
:1044600002780020914202900FD0FFE704A8017863
:1044700005A802780120002300939142019001DBFE
:104480000098019001980290FFE70298C007002869
:1044900010D0FFE703A90A783248805C069A04AD81
:1044A0002B785C1C2C70D0540398401C7F22104049
:1044B0000870D2E704A8007807B0B0BD82B001A9A7
:1044C00008702648007826490978884208DBFFE70B
:1044D0002248007822490978401A6946087008E0A5
:1044E0001F4801781D480078401A803069460870DE
:1044F000FFE701A8007869460978884204DDFFE7F4
:10450000009801A90870FFE715490878019A8018FA
:104510007F221040087002B07047C04682B001A9E7
:1045200008700E480078411C7F20014068460170E9
:1045300000780B490978884207D1FFE708490878D5
:10454000401C7F2210400870FFE7019803490B7858
:10455000044AD0540098087002B07047BC0620206E
:10456000BD0620203C0620200FB410B503A9044B43
:10457000044A029800F038F910BC08BC04B018478F
:10458000493A0000000020200FB410B504A9074BE1
:1045900002AA039800F028F9044602A9002000F0BE
:1045A000BFFC204610BC08BC04B01847214F0000D7
:1045B0002021020C01D010211046020A01D0104621
:1045C0000839020901D01046091F820801D010469F
:1045D000891E420801D0881E7047081A70474100A2
:1045E000080200D004200A0E01D001221043090E57
:1045F000FF2901D102210843012800D1052070477D
:1046000010B57F200021C005FBF704FE10BD10B5DA
:10461000FBF76AFD10BD10B500210846FBF7FAFD57
:1046200010BD10B5072061210007FBF7F7FF10BD93
:104630005E2110B5C9430807FBF7F0FF10BD00006D
:1046400002E008C8121F08C1002AFAD17047000012
:104650007047000000000000002001E001C1121FAF
:10466000002AFBD170470000014908607047000034
:1046700004002020F0B51FB486B00998089A030DF5
:104680000021024314D05148514A181850430514D0
:104690001198012810981AD0281A401C00264D4F56
:1046A0004D49009601910490002812DA444211E02D
:1046B0001198012449A3012801D11098C1430698FB
:1046C000119A84600360C26041600BB0F0BD40424B
:1046D000E4E70446210500203F4A001C51410391B4
:1046E000029012E0E00707D032463B46019900985D
:1046F000FCF7B2F80191009032463B46104619464D
:10470000FCF7AAF806460F466410002CEAD104987C
:10471000039B0028029A0999089806DAFCF79CF88E
:10472000019B009AFCF798F805E0FBF7B1FD019BAF
:10473000009AFBF7ADFD04460E460022284BFCF71D
:1047400039F903D80020C043014607E00022254B79
:1047500020463146FBF7CEFFFCF7E6F8102409E0CF
:10476000002C0ADB0A220023FBF7D6FE079B30321F
:104770001A55641E02460A43F2D11122641C079B9B
:10478000121B1C19119B012B03D0012308430ED1CE
:104790000AE0084304D0112010900020119077E720
:1047A0001098151A6D1E0BE01098824202DD00234E
:1047B0006D1C03E0824201DA00236D1E002BEED057
:1047C000069811998260C16030C07EE701FCFFFF4E
:1047D000104D0000000014400000F03F30000000C9
:1047E0000000F0430000E03FFFB597B0064600250B
:1047F00018E2252877D100242746FD49049400E0DB
:104800000443761C32780120203A90400842F7D1C8
:1048100030782A280ED00222307801463039092912
:1048200016D804990A235943303940181443761C8A
:104830000490F1E7189802C804911890002904DA4E
:104840000120400304434842049002200443761CA4
:1048500030782E2814D1042004437078761C2A283E
:1048600009D11898761C80C8189009E00A214F4396
:10487000303FC719761C3078014630390929F5D9FF
:1048800030786C2810D006DC4C281AD068280ED05E
:104890006A2817D104E0742813D07A2812D110E0C6
:1048A0000120400504430CE00121090501E003213A
:1048B00009050C437178814203D1012000052418B9
:1048C000761C761C3078119066280BD013DC5828A3
:1048D0007DD009DC00287BD04528F6D04628F4D0CE
:1048E00047281AD1A5E118E0632835D0642870D094
:1048F000652812D19DE170286CD008DC6728F1D0C2
:1049000069287BD06E280DD06F2806D1BAE07328B5
:104910002ED0752871D0782859D01A9A19999047B5
:104920006D1C7EE16002400F022809D003280DD0E3
:104930000428189801680DD00D60001D189070E1D2
:104940001898EA1701680D604A60F6E71898016840
:104950000D80F2E70D70F0E718986A460178117241
:10496000001D18900020507202A80090012005E060
:10497000189802C8189000200091C04361070DD517
:10498000002101E00199491C0191B94212DA8142EA
:10499000F8DB009A515C0029F4D10BE0002101E022
:1049A0000199491C01918142FADB019A0099895CC5
:1049B0000029F5D1019904981A9B471A21463846D7
:1049C000199A00F097FA0199401945180BE04FE049
:1049D0002CE113E04EE0009800990078491C00910A
:1049E0001A9A199990470198401E0190401CF2D1E3
:1049F000214638461A9B199A10E137E00A20002117
:104A0000009001916002410F022907D0189A01CA53
:104A10001892C2179446032908D00AE01898C01DBE
:104A2000C108C90005C91891944607E000B2C21731
:104A30009446042902D140B2C1178C460022614637
:104A4000944506DA0A460021404291418C462D21C8
:104A500002E0210504D52B216A461173012103E0F0
:104A6000E10701D02021F7E7029155E00A200AE092
:104A7000102008E010200090002104200443019140
:104A8000082703E008200021019100906002410FF7
:104A9000022907D0189A01CA1892002294460329C5
:104AA00008D008E01898C01DC108C90005C91891B0
:104AB000944603E080B2042900D1C0B200210291E3
:104AC000210729D51199702906D0009A1021019B40
:104AD0004A401A4305D00EE040216A461173012175
:104AE00008E06146014306D030216A4611731199EE
:104AF000517302210291009A0821019B4A401A43F6
:104B00000AD16146014301D1610705D530216A46CA
:104B1000117301217F1E02911199582904D035A1EA
:104B20000E910DA90D910DE037A1F9E76146019BAA
:104B3000009AFBF7F1FC0E9B8C469B5C0D9A521E73
:104B40000D92137061460143F0D10D9805A9081A22
:104B500020300190600703D501200004844300E069
:104B600001270198874201DD381A00E000200199F1
:104B700000904118029809180498401A0490E00324
:104B800006D421461A9B199A049800F0B3F94519E6
:104B9000002706E003A81A9AC05D199990476D1C7A
:104BA0007F1C02988742F5DBE0030CD521461A9B57
:104BB000199A049800F09EF9451904E01A9A3020D9
:104BC000199990476D1C0099481E00900029F5DC4A
:104BD00008E00D980D990078491C0D911A9A1999C1
:104BE00090476D1C0199481E01900029F1DC63E19A
:104BF00009280100303132333435363738396162B3
:104C00006364656600000000303132333435363776
:104C100038394142434445460000000000F05AF94B
:104C20004519761C3078002800D0E2E528461BB0F4
:104C3000F0BD600700D406271898C01DC108C90040
:104C400048680A680831C30FDB071891190001D0C2
:104C50009CA108E0210501D59BA104E0E10701D05A
:104C60009AA100E09AA1430011985B081091652871
:104C70000CD006DC452809D046281DD0472841D154
:104C800041E0662818D067283CD13CE00021112F74
:104C900001DB112000E0781C0191009008A911A807
:104CA000FFF7E8FC139905910021119A15927F1CDA
:104CB00012980197009150E00120C0070390012055
:104CC000019008A9009711A8FFF7D4FC139A149932
:104CD00005920022119B009212981593059A019259
:104CE000002901D0104602E0791C40180190381AC2
:104CF00001D5019804E04042401E0090781C0190CC
:104D0000C01B029043E0012F00DA01270021112F80
:104D100001DD112000E038460191009008A911A89A
:104D2000FFF7A8FC13990591119A0021129815928A
:104D30000091019721070CD40599B94201DB019933
:104D400000E00191012904DD159A491E515C3029CA
:104D500006D0B84201DA011D05DA0121029115E001
:104D60000199491EEDE7002805DC009941180091E2
:104D70000199091A03E0019A411C914200DD019159
:104D80000099401A401C02900120C00703902007A0
:104D900006D402990198814202DB0020C0430290B0
:104DA00000206946C87707AF012103980337C90778
:104DB000884224D0022011902B20129003980028C2
:104DC0000CDA404203902D20129007E00A2103984C
:104DD000FBF75BFB30317F1E039039701199481E41
:104DE00011900029F2DC03980028EFD1791E129867
:104DF00008703078202108404530BF1E387006A862
:104E0000C01BC01D039010980078002800D001201E
:104E1000019941180298C0170918039809180498B5
:104E2000401A401E0490E00306D421461A9B199AAA
:104E3000049800F05FF8451910980078002803D016
:104E40001A9A199990476D1CE00324D521461A9BA4
:104E5000199A049800F04EF845191CE000980028B3
:104E600007DB00990598884203DD1598405C199985
:104E700001E0199930201A9A904700986D1C401C47
:104E800000900298401E0290002804D11A9A2E2009
:104E9000199990476D1C0199481E01900029DDDC8D
:104EA00005E038781A9A7F1C199990476D1C039970
:104EB000481E03900029F4DC21461A9B199A049895
:104EC000ACE600002D0000002B00000020000000D8
:104ED00000000000F8B5044600251E461746880469
:104EE00004D405E039462020B0476D1C641EF9D576
:104EF0002846F8BDFFB50446002581B01E46C8030C
:104F000001D5302700E02027880404D505E0384685
:104F10000399B0476D1C641EF9D5284605B0F0BD55
:104F20000A68531C0B60107070470000F0B50D4606
:104F300084468BB00020029001216046C9057F267F
:104F4000431A0122F60569005206770089182C469B
:104F5000BB427DD2520191427AD3F84901224118D5
:104F60005203914275D951014118C90C0C0709052A
:104F70000A0E1146F24BD205D218801A0090029800
:104F80007F390818240F06902046FBF731FA0321D9
:104F9000C943FBF743FB7F21C905FBF7A5F8014691
:104FA00001900098FBF7F1F8029001990098FBF747
:104FB0009BF80127FF020890C019000B000301466F
:104FC00003900198FBF7E1F80099FBF78DF8049046
:104FD0007F20C0050899FBF71DF901460190029852
:104FE000FBF7DBF8C019000B000300900499FBF7F6
:104FF000D4F8049003990098FBF7CFF80299FBF7D7
:10500000C8F80499FBF7C1F80199FBF7C6F8014607
:1050100002900098FBF768F801460490FBF7BDF892
:10502000C8490190FBF7B9F8C749FBF75DF801994A
:10503000FBF7B3F8039000210098FBF7EFFA01901B
:1050400003990498FBF7A9F800900021029801E069
:1050500028E12AE2FBF7E2FA0099FBF745F801465E
:1050600000900198FBF740F8C019000B00030146BF
:1050700003900198FBF789F80099FBF735F8009049
:10508000B2490398FBF789F80290B1490098FBF701
:1050900084F80090AF490398FBF77FF80099FBF77D
:1050A00023F8014600900298FBF71EF8C019000B88
:1050B0000003014601900298FBF767F80099FBF79F
:1050C00013F8A5490890E00079440A58401809925D
:1050D000446806980001FBF78BF904902146089874
:1050E000FBF702F80199FAF7FFFF0999FAF7FCFFBD
:1050F0000499FAF7F9FFC019070B3F0338460499E2
:10510000FBF743F80999FBF740F80199FBF73DF8E5
:105110002146FBF73AF80899FBF73BF804460120D3
:10512000C0022818000B0003014603902846FBF735
:105130002CF8002102900846FBF750FC0C21084097
:10514000059038460399FBF728F8410005468B2067
:105150004908C00581420ADD4A00FF2109068A424A
:1051600005D8E90FC9070843044600201FE002994B
:105170000398FAF7B9FF2146FBF70FF804463846C3
:105180000299FBF70AF82146FAF7AEFF07460146F7
:105190002846FAF7A9FF0121C9024018040B24038D
:1051A00021462846FAF7F1FF3946FAF79DFF0190AC
:1051B0000C200599FBF712FC20460199FAF794FFA1
:1051C000FBF7D2FB07460511FBF712F92146FAF768
:1051D000E0FF0199FAF788FF04466049FAF7DDFF1E
:1051E0005F49FAF781FF2146FAF7D7FF5D49FAF7E1
:1051F0007BFF2146FAF7D1FF01463807840E5A4853
:1052000078440059FAF7C9FF584979440959FAF71F
:105210006BFF574979440959FAF766FF29467D31F2
:10522000FC2907D22946FBF7F9F93146FAF7B5FF11
:105230000BB0F0BD2946FF22BF318032914217D218
:105240002946FBF7EBF93146FAF7A7FF0446410080
:10525000FF200006814219D060000BD02046FFF7E6
:10526000BEF9042801D1FFF7E3F920460BB0F0BDE9
:10527000002D0BDA0220FFF7F7F9FFF7D9F940000C
:105280004008F10FC90708430BB0F0BD0220FFF73B
:10529000EBF9FFF7C6F940004008F10FC9070843D2
:1052A0000BB0F0BD01229207914239D3FF21C9050D
:1052B0007F224118120691421AD240006100400834
:1052C000090E7F2909DB972900DB46E69622521A50
:1052D000012191404A1E224206D00120FFF7C4F965
:1052E000FFF799F90BB0F0BD2142EED0214E34E624
:1052F000410004D0012241001206914207D301214E
:10530000C9057F22411A12069142DED346E01B21D5
:10531000FBF784F91A21C94302910028CDDB1CE672
:1053200001225206914232D3690025D0EA0F3F2173
:10533000D207C90554182546B8E70000001080C000
:10534000000080C07EE24C3EABAAAA3E00B03842CC
:105350003BAA3842D49AB8BB80040000FC5963379A
:10536000C9FF753A1872313D48040000FE03000081
:10537000B4030000000080BF410097D0FF2142002D
:1053800009068A4292D27F20C0050BB0F0BD0122EF
:105390001206914202D25110651A87E74200644911
:1053A0005208644E5318B34210D363005B08591877
:1053B000B1420BD37F21C905884264D0660062D018
:1053C000FF26F605B24201D8B34204D92946FFF7B9
:1053D0001EF90BB0F0BDB04202D1002C49DB61E0F8
:1053E0006200120E7F2A08DB972A0CDA96239B1A9A
:1053F00001229A40531E234201D0002204E022429F
:1054000001D0012200E002224B4B98420BD1002C2C
:1054100004DB012A46D118460BB0F0BD012A28D181
:10542000D0070BB0F0BD00280ED00125ED07A84233
:1054300025D1B4421DD09C4208D0002C15DA002A98
:1054400004D0012A09D001E0002C12DA0220FFF773
:105450000BF9FFF7D5F80BB0F0BD0220FFF704F908
:10546000FFF7CEF868400BB0F0BD002A01D0012A4A
:1054700002D000200BB0F0BD28460BB0F0BD812259
:10548000D205D04202D108460BB0F0BD7F214000CA
:105490000906884201D3012100E00021E017401CE9
:1054A0008142E6D130460BB0F0BD7F21C905FAF745
:1054B0006CFE01210446C943FBF7B0F81F49FAF717
:1054C00068FE2146FAF769FE3F210906FAF761FEF8
:1054D000074621460846FAF760FE0121C907484001
:1054E0003946FAF75AFE074615492046FAF755FE9F
:1054F000029014493846FAF750FE074612492046F2
:10550000FAF74BFE3946FAF7EFFD044601460298DA
:10551000FAF7EAFD0121C9024018070B3F0339469B
:105520000298FAF732FE2146FAF7DEFDF6E50000B2
:10553000FFFF7F80FFFF3F00000080FFABAAAA3E75
:1055400000B0B8413BAAB841D49A38BB0000000073
:10555000000000000000B33FB2BE7D3A00002E40C4
:10556000DFCF513800007E40BF51FABA00E0A440BE
:1055700019DAC3BA00E0C840C2ED8AB90040EB4076
:10558000CD1F2CBA001006412AFFFABA00C01541FF
:10559000DFCFD13700D024419A97703A0050334181
:1055A00089478E3600404141E75B9D3800B04E414F
:1055B000C00A98B900A05B41558F943A0030684109
:1055C000DA92C0BA0040744162B3C63A0000803F2C
:1055D00000A0853F00908B3F00C0913F0030983F76
:1055E00000F09E3F00F0A53F0050AD3F0000B53FEA
:1055F0000000BD3F0060C53F0020CE3F0040D73FC8
:1056000000C0E03F00C0EA3F0020F53F000000007E
:105610007D36AC397D3C3839EBDCF438320A7E39E2
:10562000124C26399B6AED39A4EE83397F661E3908
:10563000F6398A392B426539A48211395B991F39B1
:10564000C3EECD39DDE7C637A5A22F390000803F74
:10565000C3AA853FC2958B3FD3C3913FF037983F94
:1056600032F59E3FD7FEA53F3F58AD3FF304B53F0F
:10567000A408BD3F2A67C53F8C24CE3FFD44D73FD9
:10568000DFCCE03FC7C0EA3F7D25F53F55AA138E2A
:105690005F55AA00000055AA0A040000000000009F
:1056A00000000000000000000000003F400000007B
:1056B0000000000000300040003000400000000901
:1056C000000BC03D000BC03D00090018C024407F06
:1056D000E0224031800000180024C01B000D803201
:1056E00040018003801C4027401C80074000401080
:1056F000006000000000000000000000000000004A
:10570000001F80204040200000402020401F8000DB
:10571000000000090006001F8006000900000004C8
:105720000004003F8004000400000000100060003E
:105730000000000000000004000400040004000455
:105740000000000000004000000000000000000019
:105750002001C006003800400000001F80204020CB
:105760004020401F800000000010403FC00040006B
:1057700000000018C02140224024401840000010C2
:10578000802040244024401B80000002000D0011B6
:10579000003FC0014000003C8024402440244023BE
:1057A0008000001F802440244034400380000030EB
:1057B00000200027C03800200000001B8024402467
:1057C0004024401B8000001C0022C0224022401FB9
:1057D0008000000000000008400000000000000001
:1057E0000000000460000000000000000004000A47
:1057F000001100208040400900090009000900094B
:1058000000000000004040208011000A0004001841
:1058100000200023402400180000001F80204027A3
:105820004029401F400000004007C039000F000120
:10583000C0004020403FC0244024401B8000001F87
:10584000802040204020403080000020403FC02089
:105850004020401F80000020403FC024402E4030A8
:10586000C0000020403FC024402E00300000000F48
:10587000001080204022403380020020403FC004BE
:105880000004003FC02040204020403FC020402076
:105890004000000060202020203FC0200020002089
:1058A000403FC024400B0030C0204020403FC0207B
:1058B000400040004000C03FC03C0003C03C003FEF
:1058C000C0000020403FC00C4023003FC020001F0C
:1058D000802040204020401F80000020403FC02406
:1058E000402400180000001F802140214020E01FBC
:1058F000A0000020403FC02440260019C0004018EE
:10590000C024402440224031800000300020403F2D
:10591000C020403000000020003F80004000403F99
:1059200080200020003E0001C00700380020003821
:105930000007C03C0007C038000000204039C00606
:105940000039C0204000002000384007C038402007
:10595000000000304021C02640384020C000000038
:105960000000007FE0402040200000000070000C9C
:10597000000380004000000000402040207FE00045
:105980000000000000200040002000000000000097
:105990001000100010001000100010000000004067
:1059A00000000000000000000002800540054003E8
:1059B000C0004020003FC0044004400380000000BD
:1059C00000038004400440064000000000038004FF
:1059D0004024403FC00040000003800540054003D4
:1059E000400000000004401FC0244024402000006C
:1059F0000002E0055005500650042020403FC0043E
:105A000040040003C000400000044027C0004000E4
:105A100000000000100010041027E000000000202B
:105A2000403FC00140070004C00440204020403FE8
:105A3000C000400040000007C0040007C00400038D
:105A4000C00000044007C00440040003C000400040
:105A50000003800440044003800000041007F004A9
:105A600050044003800000000003800440045007FD
:105A7000F00010044007C0024004000400000000D1
:105A80000006400540054004C00000000004001F5F
:105A900080044000400000040007800040044007EC
:105AA000C000400400070004C00180060004000696
:105AB0000001C0070001C006000000044006C0014C
:105AC0000006C0044000000410071004E001800636
:105AD0000004000000044005C0064004400000002F
